{
  "_format": "hh-sol-artifact-1",
  "contractName": "DocumentRegistry",
  "sourceName": "contracts/DocumentRegistry.sol",
  "abi": [
    {
      "anonymous": false,
      "inputs": [
        {
          "indexed": false,
          "internalType": "string",
          "name": "documentHash",
          "type": "string"
        },
        {
          "indexed": false,
          "internalType": "address",
          "name": "owner",
          "type": "address"
        },
        {
          "indexed": false,
          "internalType": "uint256",
          "name": "timestamp",
          "type": "uint256"
        }
      ],
      "name": "DocumentStored",
      "type": "event"
    },
    {
      "inputs": [
        {
          "internalType": "uint256",
          "name": "index",
          "type": "uint256"
        }
      ],
      "name": "getDocument",
      "outputs": [
        {
          "internalType": "string",
          "name": "",
          "type": "string"
        },
        {
          "internalType": "address",
          "name": "",
          "type": "address"
        },
        {
          "internalType": "uint256",
          "name": "",
          "type": "uint256"
        }
      ],
      "stateMutability": "view",
      "type": "function"
    },
    {
      "inputs": [
        {
          "internalType": "string",
          "name": "_hash",
          "type": "string"
        }
      ],
      "name": "storeDocument",
      "outputs": [],
      "stateMutability": "nonpayable",
      "type": "function"
    },
    {
      "inputs": [],
      "name": "totalDocuments",
      "outputs": [
        {
          "internalType": "uint256",
          "name": "",
          "type": "uint256"
        }
      ],
      "stateMutability": "view",
      "type": "function"
    }
  ],
  "bytecode": "0x608060405234801561001057600080fd5b50610976806100206000396000f3fe608060405234801561001057600080fd5b50600436106100415760003560e01c80633f9b250a14610046578063553181ec14610078578063b644f35014610096575b600080fd5b610060600480360381019061005b919061034f565b6100b2565b60405161006f9392919061045c565b60405180910390f35b6100806101f6565b60405161008d919061049a565b60405180910390f35b6100b060048036038101906100ab91906105ea565b610202565b005b606060008060008085815481106100cc576100cb610633565b5b90600052602060002090600302016040518060600160405290816000820180546100f590610691565b80601f016020809104026020016040519081016040528092919081815260200182805461012190610691565b801561016e5780601f106101435761010080835404028352916020019161016e565b820191906000526020600020905b81548152906001019060200180831161015157829003601f168201915b505050505081526020016001820160009054906101000a900473ffffffffffffffffffffffffffffffffffffffff1673ffffffffffffffffffffffffffffffffffffffff1673ffffffffffffffffffffffffffffffffffffffff1681526020016002820154815250509050806000015181602001518260400151935093509350509193909250565b60008080549050905090565b600060405180606001604052808381526020013373ffffffffffffffffffffffffffffffffffffffff1681526020014281525090806001815401808255809150506001900390600052602060002090600302016000909190919091506000820151816000019081610273919061086e565b5060208201518160010160006101000a81548173ffffffffffffffffffffffffffffffffffffffff021916908373ffffffffffffffffffffffffffffffffffffffff1602179055506040820151816002015550507f55a2ca31862716055cfaba9eb1420f6b5f8f37e229a1450858b0faffeec3e9b78133426040516102fa9392919061045c565b60405180910390a150565b6000604051905090565b600080fd5b600080fd5b6000819050919050565b61032c81610319565b811461033757600080fd5b50565b60008135905061034981610323565b92915050565b6000602082840312156103655761036461030f565b5b60006103738482850161033a565b91505092915050565b600081519050919050565b600082825260208201905092915050565b60005b838110156103b657808201518184015260208101905061039b565b60008484015250505050565b6000601f19601f8301169050919050565b60006103de8261037c565b6103e88185610387565b93506103f8818560208601610398565b610401816103c2565b840191505092915050565b600073ffffffffffffffffffffffffffffffffffffffff82169050919050565b60006104378261040c565b9050919050565b6104478161042c565b82525050565b61045681610319565b82525050565b6000606082019050818103600083015261047681866103d3565b9050610485602083018561043e565b610492604083018461044d565b949350505050565b60006020820190506104af600083018461044d565b92915050565b600080fd5b600080fd5b7f4e487b7100000000000000000000000000000000000000000000000000000000600052604160045260246000fd5b6104f7826103c2565b810181811067ffffffffffffffff82111715610516576105156104bf565b5b80604052505050565b6000610529610305565b905061053582826104ee565b919050565b600067ffffffffffffffff821115610555576105546104bf565b5b61055e826103c2565b9050602081019050919050565b82818337600083830152505050565b600061058d6105888461053a565b61051f565b9050828152602081018484840111156105a9576105a86104ba565b5b6105b484828561056b565b509392505050565b600082601f8301126105d1576105d06104b5565b5b81356105e184826020860161057a565b91505092915050565b600060208284031215610600576105ff61030f565b5b600082013567ffffffffffffffff81111561061e5761061d610314565b5b61062a848285016105bc565b91505092915050565b7f4e487b7100000000000000000000000000000000000000000000000000000000600052603260045260246000fd5b7f4e487b7100000000000000000000000000000000000000000000000000000000600052602260045260246000fd5b600060028204905060018216806106a957607f821691505b6020821081036106bc576106bb610662565b5b50919050565b60008190508160005260206000209050919050565b60006020601f8301049050919050565b600082821b905092915050565b6000600883026107247fffffffffffffffffffffffffffffffffffffffffffffffffffffffffffffffff826106e7565b61072e86836106e7565b95508019841693508086168417925050509392505050565b6000819050919050565b600061076b61076661076184610319565b610746565b610319565b9050919050565b6000819050919050565b61078583610750565b61079961079182610772565b8484546106f4565b825550505050565b600090565b6107ae6107a1565b6107b981848461077c565b505050565b5b818110156107dd576107d26000826107a6565b6001810190506107bf565b5050565b601f821115610822576107f3816106c2565b6107fc846106d7565b8101602085101561080b578190505b61081f610817856106d7565b8301826107be565b50505b505050565b600082821c905092915050565b600061084560001984600802610827565b1980831691505092915050565b600061085e8383610834565b9150826002028217905092915050565b6108778261037c565b67ffffffffffffffff8111156108905761088f6104bf565b5b61089a8254610691565b6108a58282856107e1565b600060209050601f8311600181146108d857600084156108c6578287015190505b6108d08582610852565b865550610938565b601f1984166108e6866106c2565b60005b8281101561090e578489015182556001820191506020850194506020810190506108e9565b8683101561092b5784890151610927601f891682610834565b8355505b6001600288020188555050505b50505050505056fea2646970667358221220800f2ac630599292be0e40fd4af2515357bf3d83cdf6fa2cf6c5308ac5446be964736f6c63430008180033",
  "linkReferences": {},
  "deployedLinkReferences": {}
}